{
  "_format": "hh-sol-artifact-1",
  "contractName": "MovieFactory",
  "sourceName": "contracts/MovieFactory.sol",
  "abi": [
    {
      "anonymous": false,
      "inputs": [
        {
          "indexed": false,
          "internalType": "address",
          "name": "movieAddress",
          "type": "address"
        },
        {
          "indexed": false,
          "internalType": "address",
          "name": "producer",
          "type": "address"
        }
      ],
      "name": "MovieCreated",
      "type": "event"
    },
    {
      "inputs": [
        {
          "internalType": "uint256",
          "name": "_targetRaise",
          "type": "uint256"
        },
        {
          "internalType": "uint256",
          "name": "_tokenPrice",
          "type": "uint256"
        },
        {
          "internalType": "uint256",
          "name": "_duration",
          "type": "uint256"
        },
        {
          "internalType": "uint256",
          "name": "_totalTokenSupply",
          "type": "uint256"
        }
      ],
      "name": "createMovie",
      "outputs": [],
      "stateMutability": "nonpayable",
      "type": "function"
    },
    {
      "inputs": [
        {
          "internalType": "uint256",
          "name": "",
          "type": "uint256"
        }
      ],
      "name": "deployedMovies",
      "outputs": [
        {
          "internalType": "address",
          "name": "",
          "type": "address"
        }
      ],
      "stateMutability": "view",
      "type": "function"
    },
    {
      "inputs": [],
      "name": "getAllMovies",
      "outputs": [
        {
          "internalType": "address[]",
          "name": "",
          "type": "address[]"
        }
      ],
      "stateMutability": "view",
      "type": "function"
    }
  ],
  "bytecode": "0x608060405234801561001057600080fd5b5061186f806100206000396000f3fe608060405234801561001057600080fd5b50600436106100415760003560e01c8063aafe7fa114610046578063e16f006514610062578063fe4cd03d14610080575b600080fd5b610060600480360381019061005b91906102a8565b6100b0565b005b61006a610193565b60405161007791906103ff565b60405180910390f35b61009a60048036038101906100959190610421565b610221565b6040516100a7919061045d565b60405180910390f35b600033858585856040516100c390610260565b6100d1959493929190610487565b604051809103906000f0801580156100ed573d6000803e3d6000fd5b5090506000819080600181540180825580915050600190039060005260206000200160009091909190916101000a81548173ffffffffffffffffffffffffffffffffffffffff021916908373ffffffffffffffffffffffffffffffffffffffff1602179055507fb6fbecea138cf3d1485dd899f7932aed9ed5426890c53e1e28b1d64a585cf33581336040516101849291906104da565b60405180910390a15050505050565b6060600080548060200260200160405190810160405280929190818152602001828054801561021757602002820191906000526020600020905b8160009054906101000a900473ffffffffffffffffffffffffffffffffffffffff1673ffffffffffffffffffffffffffffffffffffffff16815260200190600101908083116101cd575b5050505050905090565b6000818154811061023157600080fd5b906000526020600020016000915054906101000a900473ffffffffffffffffffffffffffffffffffffffff1681565b6113368061050483390190565b600080fd5b6000819050919050565b61028581610272565b811461029057600080fd5b50565b6000813590506102a28161027c565b92915050565b600080600080608085870312156102c2576102c161026d565b5b60006102d087828801610293565b94505060206102e187828801610293565b93505060406102f287828801610293565b925050606061030387828801610293565b91505092959194509250565b600081519050919050565b600082825260208201905092915050565b6000819050602082019050919050565b600073ffffffffffffffffffffffffffffffffffffffff82169050919050565b60006103668261033b565b9050919050565b6103768161035b565b82525050565b6000610388838361036d565b60208301905092915050565b6000602082019050919050565b60006103ac8261030f565b6103b6818561031a565b93506103c18361032b565b8060005b838110156103f25781516103d9888261037c565b97506103e483610394565b9250506001810190506103c5565b5085935050505092915050565b6000602082019050818103600083015261041981846103a1565b905092915050565b6000602082840312156104375761043661026d565b5b600061044584828501610293565b91505092915050565b6104578161035b565b82525050565b6000602082019050610472600083018461044e565b92915050565b61048181610272565b82525050565b600060a08201905061049c600083018861044e565b6104a96020830187610478565b6104b66040830186610478565b6104c36060830185610478565b6104d06080830184610478565b9695505050505050565b60006040820190506104ef600083018561044e565b6104fc602083018461044e565b939250505056fe60806040523480156200001157600080fd5b506040516200133638038062001336833981810160405281019062000037919062000150565b846000806101000a81548173ffffffffffffffffffffffffffffffffffffffff021916908373ffffffffffffffffffffffffffffffffffffffff1602179055508360018190555082600381905550814262000093919062000207565b60048190555080600581905550505050505062000242565b600080fd5b600073ffffffffffffffffffffffffffffffffffffffff82169050919050565b6000620000dd82620000b0565b9050919050565b620000ef81620000d0565b8114620000fb57600080fd5b50565b6000815190506200010f81620000e4565b92915050565b6000819050919050565b6200012a8162000115565b81146200013657600080fd5b50565b6000815190506200014a816200011f565b92915050565b600080600080600060a086880312156200016f576200016e620000ab565b5b60006200017f88828901620000fe565b9550506020620001928882890162000139565b9450506040620001a58882890162000139565b9350506060620001b88882890162000139565b9250506080620001cb8882890162000139565b9150509295509295909350565b7f4e487b7100000000000000000000000000000000000000000000000000000000600052601160045260246000fd5b6000620002148262000115565b9150620002218362000115565b92508282019050808211156200023c576200023b620001d8565b5b92915050565b6110e480620002526000396000f3fe6080604052600436106100e85760003560e01c80635114e9751161008a5780639624fefb116100595780639624fefb146102c7578063b4841a23146102f2578063c5c4744c14610323578063e8b5e51f1461034e576100e8565b80635114e9751461022f578063564f4f761461025a57806363b20117146102715780637ff9b5961461029c576100e8565b806329dcb0cf116100c657806329dcb0cf1461019257806337612672146101bd57806344e43cb8146101e85780634f4dac6f146101f2576100e8565b806309c80962146100ed5780631ca8b6cb1461012a57806321cda79014610155575b600080fd5b3480156100f957600080fd5b50610114600480360381019061010f9190610aaa565b610358565b6040516101219190610af0565b60405180910390f35b34801561013657600080fd5b5061013f610370565b60405161014c9190610af0565b60405180910390f35b34801561016157600080fd5b5061017c60048036038101906101779190610aaa565b610376565b6040516101899190610af0565b60405180910390f35b34801561019e57600080fd5b506101a761038e565b6040516101b49190610af0565b60405180910390f35b3480156101c957600080fd5b506101d2610394565b6040516101df9190610b1a565b60405180910390f35b6101f06103b8565b005b3480156101fe57600080fd5b5061021960048036038101906102149190610aaa565b61057e565b6040516102269190610af0565b60405180910390f35b34801561023b57600080fd5b50610244610670565b6040516102519190610af0565b60405180910390f35b34801561026657600080fd5b5061026f610676565b005b34801561027d57600080fd5b5061028661079f565b6040516102939190610af0565b60405180910390f35b3480156102a857600080fd5b506102b16107a5565b6040516102be9190610af0565b60405180910390f35b3480156102d357600080fd5b506102dc6107ab565b6040516102e99190610af0565b60405180910390f35b3480156102fe57600080fd5b506103076107b1565b60405161031a9796959493929190610b35565b60405180910390f35b34801561032f57600080fd5b50610338610807565b6040516103459190610af0565b60405180910390f35b61035661080d565b005b60096020528060005260406000206000915090505481565b60055481565b60086020528060005260406000206000915090505481565b60045481565b60008054906101000a900473ffffffffffffffffffffffffffffffffffffffff1681565b60008054906101000a900473ffffffffffffffffffffffffffffffffffffffff1673ffffffffffffffffffffffffffffffffffffffff163373ffffffffffffffffffffffffffffffffffffffff1614610446576040517f08c379a000000000000000000000000000000000000000000000000000000000815260040161043d90610c01565b60405180910390fd5b60003411610489576040517f08c379a000000000000000000000000000000000000000000000000000000000815260040161048090610c6d565b60405180910390fd5b60006064604b3461049a9190610cbc565b6104a49190610d2d565b9050600060646019346104b79190610cbc565b6104c19190610d2d565b905080600760008282546104d59190610d5e565b9250508190555060008054906101000a900473ffffffffffffffffffffffffffffffffffffffff1673ffffffffffffffffffffffffffffffffffffffff166108fc839081150290604051600060405180830381858888f19350505050158015610542573d6000803e3d6000fd5b507fa233bf660ff45a53efdacc9f262f3ba6a03b00e58e587d8536a4cfec59680a1c346040516105729190610af0565b60405180910390a15050565b600080600860008473ffffffffffffffffffffffffffffffffffffffff1673ffffffffffffffffffffffffffffffffffffffff16815260200190815260200160002054905060008114806105d457506000600654145b156105e357600091505061066b565b6000600654600754836105f69190610cbc565b6106009190610d2d565b90506000600960008673ffffffffffffffffffffffffffffffffffffffff1673ffffffffffffffffffffffffffffffffffffffff168152602001908152602001600020549050808211610659576000935050505061066b565b80826106659190610d92565b93505050505b919050565b60015481565b60006106813361057e565b9050600081116106c6576040517f08c379a00000000000000000000000000000000000000000000000000000000081526004016106bd90610e12565b60405180910390fd5b80600960003373ffffffffffffffffffffffffffffffffffffffff1673ffffffffffffffffffffffffffffffffffffffff16815260200190815260200160002060008282546107159190610d5e565b925050819055503373ffffffffffffffffffffffffffffffffffffffff166108fc829081150290604051600060405180830381858888f19350505050158015610762573d6000803e3d6000fd5b507fc15f451120b13b6b40c6ad6203614ab3088308bef9150c0d6f46ea79bf4642243382604051610794929190610e32565b60405180910390a150565b60065481565b60035481565b60075481565b60008060008060008060008060009054906101000a900473ffffffffffffffffffffffffffffffffffffffff16600154600254600354600454600554600654965096509650965096509650965090919293949596565b60025481565b6004544210610851576040517f08c379a000000000000000000000000000000000000000000000000000000000815260040161084890610ea7565b60405180910390fd5b60003411610894576040517f08c379a000000000000000000000000000000000000000000000000000000000815260040161088b90610f13565b60405180910390fd5b600154600254106108da576040517f08c379a00000000000000000000000000000000000000000000000000000000081526004016108d190610f7f565b60405180910390fd5b6000600354346108ea9190610d2d565b90506000811161092f576040517f08c379a000000000000000000000000000000000000000000000000000000000815260040161092690610feb565b60405180910390fd5b600554816006546109409190610d5e565b1115610981576040517f08c379a000000000000000000000000000000000000000000000000000000000815260040161097890611057565b60405180910390fd5b80600860003373ffffffffffffffffffffffffffffffffffffffff1673ffffffffffffffffffffffffffffffffffffffff16815260200190815260200160002060008282546109d09190610d5e565b9250508190555034600260008282546109e99190610d5e565b925050819055508060066000828254610a029190610d5e565b925050819055507f9e9d071824fd57d062ca63fd8b786d8da48a6807eebbcb2d83f9e8d21398e28c333483604051610a3c93929190611077565b60405180910390a150565b600080fd5b600073ffffffffffffffffffffffffffffffffffffffff82169050919050565b6000610a7782610a4c565b9050919050565b610a8781610a6c565b8114610a9257600080fd5b50565b600081359050610aa481610a7e565b92915050565b600060208284031215610ac057610abf610a47565b5b6000610ace84828501610a95565b91505092915050565b6000819050919050565b610aea81610ad7565b82525050565b6000602082019050610b056000830184610ae1565b92915050565b610b1481610a6c565b82525050565b6000602082019050610b2f6000830184610b0b565b92915050565b600060e082019050610b4a600083018a610b0b565b610b576020830189610ae1565b610b646040830188610ae1565b610b716060830187610ae1565b610b7e6080830186610ae1565b610b8b60a0830185610ae1565b610b9860c0830184610ae1565b98975050505050505050565b600082825260208201905092915050565b7f4f6e6c792070726f647563657200000000000000000000000000000000000000600082015250565b6000610beb600d83610ba4565b9150610bf682610bb5565b602082019050919050565b60006020820190508181036000830152610c1a81610bde565b9050919050565b7f53656e6420726576656e75650000000000000000000000000000000000000000600082015250565b6000610c57600c83610ba4565b9150610c6282610c21565b602082019050919050565b60006020820190508181036000830152610c8681610c4a565b9050919050565b7f4e487b7100000000000000000000000000000000000000000000000000000000600052601160045260246000fd5b6000610cc782610ad7565b9150610cd283610ad7565b9250828202610ce081610ad7565b91508282048414831517610cf757610cf6610c8d565b5b5092915050565b7f4e487b7100000000000000000000000000000000000000000000000000000000600052601260045260246000fd5b6000610d3882610ad7565b9150610d4383610ad7565b925082610d5357610d52610cfe565b5b828204905092915050565b6000610d6982610ad7565b9150610d7483610ad7565b9250828201905080821115610d8c57610d8b610c8d565b5b92915050565b6000610d9d82610ad7565b9150610da883610ad7565b9250828203905081811115610dc057610dbf610c8d565b5b92915050565b7f4e6f7468696e6720746f20636c61696d00000000000000000000000000000000600082015250565b6000610dfc601083610ba4565b9150610e0782610dc6565b602082019050919050565b60006020820190508181036000830152610e2b81610def565b9050919050565b6000604082019050610e476000830185610b0b565b610e546020830184610ae1565b9392505050565b7f46756e64696e6720656e64656400000000000000000000000000000000000000600082015250565b6000610e91600d83610ba4565b9150610e9c82610e5b565b602082019050919050565b60006020820190508181036000830152610ec081610e84565b9050919050565b7f53656e6420424e42000000000000000000000000000000000000000000000000600082015250565b6000610efd600883610ba4565b9150610f0882610ec7565b602082019050919050565b60006020820190508181036000830152610f2c81610ef0565b9050919050565b7f5461726765742072656163686564000000000000000000000000000000000000600082015250565b6000610f69600e83610ba4565b9150610f7482610f33565b602082019050919050565b60006020820190508181036000830152610f9881610f5c565b9050919050565b7f546f6f20736d616c6c20616d6f756e7400000000000000000000000000000000600082015250565b6000610fd5601083610ba4565b9150610fe082610f9f565b602082019050919050565b6000602082019050818103600083015261100481610fc8565b9050919050565b7f4e6f7420656e6f75676820746f6b656e73206c65667400000000000000000000600082015250565b6000611041601683610ba4565b915061104c8261100b565b602082019050919050565b6000602082019050818103600083015261107081611034565b9050919050565b600060608201905061108c6000830186610b0b565b6110996020830185610ae1565b6110a66040830184610ae1565b94935050505056fea26469706673582212208b1bb22ed064db90a573d5d7ff5a45faf6dddbd120248da99befadab613528fa64736f6c63430008140033a26469706673582212200a5975e0762870b3a0625945159563c6c1d83ff7ce36ddda47792d38212565fa64736f6c63430008140033",
  "linkReferences": {},
  "deployedLinkReferences": {}
}